{
  "address": "0x0165878A594ca255338adfa4d48449f69242Eb8F",
  "abi": [
    {
      "inputs": [
        {
          "internalType": "uint256",
          "name": "_blockTime",
          "type": "uint256"
        },
        {
          "internalType": "address",
          "name": "dataFeedAddr",
          "type": "address"
        }
      ],
      "stateMutability": "payable",
      "type": "constructor"
    },
    {
      "inputs": [],
      "name": "erc20Address",
      "outputs": [
        {
          "internalType": "address",
          "name": "",
          "type": "address"
        }
      ],
      "stateMutability": "view",
      "type": "function"
    },
    {
      "inputs": [],
      "name": "fund",
      "outputs": [],
      "stateMutability": "payable",
      "type": "function"
    },
    {
      "inputs": [
        {
          "internalType": "address",
          "name": "",
          "type": "address"
        }
      ],
      "name": "funderAmount",
      "outputs": [
        {
          "internalType": "uint256",
          "name": "",
          "type": "uint256"
        }
      ],
      "stateMutability": "view",
      "type": "function"
    },
    {
      "inputs": [],
      "name": "getChainLinkDataFeedLatestAnswer",
      "outputs": [
        {
          "internalType": "int256",
          "name": "",
          "type": "int256"
        }
      ],
      "stateMutability": "view",
      "type": "function"
    },
    {
      "inputs": [],
      "name": "getFund",
      "outputs": [],
      "stateMutability": "nonpayable",
      "type": "function"
    },
    {
      "inputs": [],
      "name": "getFundSuccess",
      "outputs": [
        {
          "internalType": "bool",
          "name": "",
          "type": "bool"
        }
      ],
      "stateMutability": "view",
      "type": "function"
    },
    {
      "inputs": [],
      "name": "owner",
      "outputs": [
        {
          "internalType": "address",
          "name": "",
          "type": "address"
        }
      ],
      "stateMutability": "view",
      "type": "function"
    },
    {
      "inputs": [],
      "name": "refund",
      "outputs": [],
      "stateMutability": "nonpayable",
      "type": "function"
    },
    {
      "inputs": [
        {
          "internalType": "address",
          "name": "erc20Addr",
          "type": "address"
        }
      ],
      "name": "setERC20Addr",
      "outputs": [],
      "stateMutability": "nonpayable",
      "type": "function"
    },
    {
      "inputs": [
        {
          "internalType": "address",
          "name": "addr",
          "type": "address"
        },
        {
          "internalType": "uint256",
          "name": "value",
          "type": "uint256"
        }
      ],
      "name": "setFunderAmount",
      "outputs": [],
      "stateMutability": "nonpayable",
      "type": "function"
    },
    {
      "inputs": [
        {
          "internalType": "address",
          "name": "newOwner",
          "type": "address"
        }
      ],
      "name": "transferOwner",
      "outputs": [],
      "stateMutability": "nonpayable",
      "type": "function"
    }
  ],
  "transactionHash": "0xbafbee2e269bcb0cca9b893dcfd4b0859b7e8428a66b366178e94a059cd0de15",
  "args": [
    3600,
    "0x5FC8d32690cc91D4c39d9d3abcBD16989F875707"
  ],
  "numDeployments": 2,
  "solcInputHash": "f67a53cb5aecdf359a6e6439333e5974",
  "bytecode": "0x60806040526000600560146101000a81548160ff02191690831515021790555060405161168638038061168683398181016040528101906100409190610170565b80600160006101000a81548173ffffffffffffffffffffffffffffffffffffffff021916908373ffffffffffffffffffffffffffffffffffffffff16021790555033600260006101000a81548173ffffffffffffffffffffffffffffffffffffffff021916908373ffffffffffffffffffffffffffffffffffffffff160217905550426003819055508160048190555050506101b0565b600080fd5b6000819050919050565b6100ef816100dc565b81146100fa57600080fd5b50565b60008151905061010c816100e6565b92915050565b600073ffffffffffffffffffffffffffffffffffffffff82169050919050565b600061013d82610112565b9050919050565b61014d81610132565b811461015857600080fd5b50565b60008151905061016a81610144565b92915050565b60008060408385031215610187576101866100d7565b5b6000610195858286016100fd565b92505060206101a68582860161015b565b9150509250929050565b6114c7806101bf6000396000f3fe60806040526004361061009c5760003560e01c80638da5cb5b116100645780638da5cb5b146101605780638edd6eb61461018b578063a9100d81146101a2578063af5e73a4146101cb578063b60d428814610208578063da4658e0146102125761009c565b8063276184ae146100a15780634fb2e45d146100cc578063590e1ae3146100f55780635ab2bc201461010c578063648c291014610137575b600080fd5b3480156100ad57600080fd5b506100b661023d565b6040516100c39190610c50565b60405180910390f35b3480156100d857600080fd5b506100f360048036038101906100ee9190610c9c565b610263565b005b34801561010157600080fd5b5061010a610337565b005b34801561011857600080fd5b506101216105a0565b60405161012e9190610ce2565b60405180910390f35b34801561014357600080fd5b5061015e60048036038101906101599190610c9c565b610641565b005b34801561016c57600080fd5b50610175610715565b6040516101829190610c50565b60405180910390f35b34801561019757600080fd5b506101a061073b565b005b3480156101ae57600080fd5b506101c960048036038101906101c49190610d33565b61094c565b005b3480156101d757600080fd5b506101f260048036038101906101ed9190610c9c565b610a23565b6040516101ff9190610d82565b60405180910390f35b610210610a3b565b005b34801561021e57600080fd5b50610227610bd2565b6040516102349190610db8565b60405180910390f35b600560009054906101000a900473ffffffffffffffffffffffffffffffffffffffff1681565b600260009054906101000a900473ffffffffffffffffffffffffffffffffffffffff1673ffffffffffffffffffffffffffffffffffffffff163373ffffffffffffffffffffffffffffffffffffffff16146102f3576040517f08c379a00000000000000000000000000000000000000000000000000000000081526004016102ea90610e56565b60405180910390fd5b80600260006101000a81548173ffffffffffffffffffffffffffffffffffffffff021916908373ffffffffffffffffffffffffffffffffffffffff16021790555050565b6004546003546103479190610ea5565b4211610388576040517f08c379a000000000000000000000000000000000000000000000000000000000815260040161037f90610f25565b60405180910390fd5b60006103926105a0565b905060006103a04783610be5565b9050670de0b6b3a764000081106103ec576040517f08c379a00000000000000000000000000000000000000000000000000000000081526004016103e390610f91565b60405180910390fd5b60008060003373ffffffffffffffffffffffffffffffffffffffff1673ffffffffffffffffffffffffffffffffffffffff168152602001908152602001600020541161046d576040517f08c379a000000000000000000000000000000000000000000000000000000000815260040161046490610ffd565b60405180910390fd5b60003373ffffffffffffffffffffffffffffffffffffffff166000803373ffffffffffffffffffffffffffffffffffffffff1673ffffffffffffffffffffffffffffffffffffffff168152602001908152602001600020546040516104d19061104e565b60006040518083038185875af1925050503d806000811461050e576040519150601f19603f3d011682016040523d82523d6000602084013e610513565b606091505b5050905080610557576040517f08c379a000000000000000000000000000000000000000000000000000000000815260040161054e906110af565b60405180910390fd5b60008060003373ffffffffffffffffffffffffffffffffffffffff1673ffffffffffffffffffffffffffffffffffffffff16815260200190815260200160002081905550505050565b600080600160009054906101000a900473ffffffffffffffffffffffffffffffffffffffff1673ffffffffffffffffffffffffffffffffffffffff1663feaf968c6040518163ffffffff1660e01b815260040160a060405180830381865afa158015610610573d6000803e3d6000fd5b505050506040513d601f19601f820116820180604052508101906106349190611152565b5050509150508091505090565b600260009054906101000a900473ffffffffffffffffffffffffffffffffffffffff1673ffffffffffffffffffffffffffffffffffffffff163373ffffffffffffffffffffffffffffffffffffffff16146106d1576040517f08c379a00000000000000000000000000000000000000000000000000000000081526004016106c890610e56565b60405180910390fd5b80600560006101000a81548173ffffffffffffffffffffffffffffffffffffffff021916908373ffffffffffffffffffffffffffffffffffffffff16021790555050565b600260009054906101000a900473ffffffffffffffffffffffffffffffffffffffff1681565b60045460035461074b9190610ea5565b421161078c576040517f08c379a000000000000000000000000000000000000000000000000000000000815260040161078390610f25565b60405180910390fd5b600260009054906101000a900473ffffffffffffffffffffffffffffffffffffffff1673ffffffffffffffffffffffffffffffffffffffff163373ffffffffffffffffffffffffffffffffffffffff161461081c576040517f08c379a000000000000000000000000000000000000000000000000000000000815260040161081390610e56565b60405180910390fd5b60006108266105a0565b905060006108344783610be5565b9050670de0b6b3a7640000811015610881576040517f08c379a00000000000000000000000000000000000000000000000000000000081526004016108789061123f565b60405180910390fd5b60003373ffffffffffffffffffffffffffffffffffffffff16476040516108a79061104e565b60006040518083038185875af1925050503d80600081146108e4576040519150601f19603f3d011682016040523d82523d6000602084013e6108e9565b606091505b505090508061092d576040517f08c379a0000000000000000000000000000000000000000000000000000000008152600401610924906110af565b60405180910390fd5b80600560146101000a81548160ff021916908315150217905550505050565b600560009054906101000a900473ffffffffffffffffffffffffffffffffffffffff1673ffffffffffffffffffffffffffffffffffffffff163373ffffffffffffffffffffffffffffffffffffffff16146109dc576040517f08c379a00000000000000000000000000000000000000000000000000000000081526004016109d3906112d1565b60405180910390fd5b806000808473ffffffffffffffffffffffffffffffffffffffff1673ffffffffffffffffffffffffffffffffffffffff168152602001908152602001600020819055505050565b60006020528060005260406000206000915090505481565b6000610a456105a0565b90506000610a533483610be5565b9050600454600354610a659190610ea5565b4210610aa6576040517f08c379a0000000000000000000000000000000000000000000000000000000008152600401610a9d9061133d565b60405180910390fd5b60018111610ae9576040517f08c379a0000000000000000000000000000000000000000000000000000000008152600401610ae0906113cf565b60405180910390fd5b60008060003373ffffffffffffffffffffffffffffffffffffffff1673ffffffffffffffffffffffffffffffffffffffff168152602001908152602001600020541115610b8a57346000803373ffffffffffffffffffffffffffffffffffffffff1673ffffffffffffffffffffffffffffffffffffffff1681526020019081526020016000206000828254610b7e9190610ea5565b92505081905550610bce565b346000803373ffffffffffffffffffffffffffffffffffffffff1673ffffffffffffffffffffffffffffffffffffffff168152602001908152602001600020819055505b5050565b600560149054906101000a900460ff1681565b6000806305f5e1008385610bf991906113ef565b610c039190611460565b90508091505092915050565b600073ffffffffffffffffffffffffffffffffffffffff82169050919050565b6000610c3a82610c0f565b9050919050565b610c4a81610c2f565b82525050565b6000602082019050610c656000830184610c41565b92915050565b600080fd5b610c7981610c2f565b8114610c8457600080fd5b50565b600081359050610c9681610c70565b92915050565b600060208284031215610cb257610cb1610c6b565b5b6000610cc084828501610c87565b91505092915050565b6000819050919050565b610cdc81610cc9565b82525050565b6000602082019050610cf76000830184610cd3565b92915050565b6000819050919050565b610d1081610cfd565b8114610d1b57600080fd5b50565b600081359050610d2d81610d07565b92915050565b60008060408385031215610d4a57610d49610c6b565b5b6000610d5885828601610c87565b9250506020610d6985828601610d1e565b9150509250929050565b610d7c81610cfd565b82525050565b6000602082019050610d976000830184610d73565b92915050565b60008115159050919050565b610db281610d9d565b82525050565b6000602082019050610dcd6000830184610da9565b92915050565b600082825260208201905092915050565b7f4f6e6c79206f776e65722063616e207472616e73666572206f776e657220726960008201527f6768742100000000000000000000000000000000000000000000000000000000602082015250565b6000610e40602483610dd3565b9150610e4b82610de4565b604082019050919050565b60006020820190508181036000830152610e6f81610e33565b9050919050565b7f4e487b7100000000000000000000000000000000000000000000000000000000600052601160045260246000fd5b6000610eb082610cfd565b9150610ebb83610cfd565b9250828201905080821115610ed357610ed2610e76565b5b92915050565b7f54696d65206973206e6f74207265616368656421000000000000000000000000600082015250565b6000610f0f601483610dd3565b9150610f1a82610ed9565b602082019050919050565b60006020820190508181036000830152610f3e81610f02565b9050919050565b7f5461726765742069732072656163686564000000000000000000000000000000600082015250565b6000610f7b601183610dd3565b9150610f8682610f45565b602082019050919050565b60006020820190508181036000830152610faa81610f6e565b9050919050565b7f596f75206e6f2066756e6420616e79206d6f7265210000000000000000000000600082015250565b6000610fe7601583610dd3565b9150610ff282610fb1565b602082019050919050565b6000602082019050818103600083015261101681610fda565b9050919050565b600081905092915050565b50565b600061103860008361101d565b915061104382611028565b600082019050919050565b60006110598261102b565b9150819050919050565b7f5478206661696c65642100000000000000000000000000000000000000000000600082015250565b6000611099600a83610dd3565b91506110a482611063565b602082019050919050565b600060208201905081810360008301526110c88161108c565b9050919050565b600069ffffffffffffffffffff82169050919050565b6110ee816110cf565b81146110f957600080fd5b50565b60008151905061110b816110e5565b92915050565b61111a81610cc9565b811461112557600080fd5b50565b60008151905061113781611111565b92915050565b60008151905061114c81610d07565b92915050565b600080600080600060a0868803121561116e5761116d610c6b565b5b600061117c888289016110fc565b955050602061118d88828901611128565b945050604061119e8882890161113d565b93505060606111af8882890161113d565b92505060806111c0888289016110fc565b9150509295509295909350565b7f46756e6420416d6f756e74204d7573742042652047726561746572205468616e60008201527f2031303030205553440000000000000000000000000000000000000000000000602082015250565b6000611229602983610dd3565b9150611234826111cd565b604082019050919050565b600060208201905081810360008301526112588161121c565b9050919050565b7f63616c6c6572206d75737420626520746172746765742045524332302061646460008201527f7265737321000000000000000000000000000000000000000000000000000000602082015250565b60006112bb602583610dd3565b91506112c68261125f565b604082019050919050565b600060208201905081810360008301526112ea816112ae565b9050919050565b7f4578706972656421000000000000000000000000000000000000000000000000600082015250565b6000611327600883610dd3565b9150611332826112f1565b602082019050919050565b600060208201905081810360008301526113568161131a565b9050919050565b7f46756e6420416d6f756e74204d7573742062652047726561746572205468616e60008201527f2031205553442100000000000000000000000000000000000000000000000000602082015250565b60006113b9602783610dd3565b91506113c48261135d565b604082019050919050565b600060208201905081810360008301526113e8816113ac565b9050919050565b60006113fa82610cfd565b915061140583610cfd565b925082820261141381610cfd565b9150828204841483151761142a57611429610e76565b5b5092915050565b7f4e487b7100000000000000000000000000000000000000000000000000000000600052601260045260246000fd5b600061146b82610cfd565b915061147683610cfd565b92508261148657611485611431565b5b82820490509291505056fea2646970667358221220ced7fecbd0f1b368af070a6148abf7c7a3af7a7741260a437340394a541d737664736f6c634300081c0033",
  "devdoc": {
    "kind": "dev",
    "methods": {},
    "version": 1
  },
  "userdoc": {
    "kind": "user",
    "methods": {},
    "version": 1
  },
  "storageLayout": {
    "storage": [
      {
        "astId": 765,
        "contract": "contracts/FundMe.sol:FundMe",
        "label": "funderAmount",
        "offset": 0,
        "slot": "0",
        "type": "t_mapping(t_address,t_uint256)"
      },
      {
        "astId": 773,
        "contract": "contracts/FundMe.sol:FundMe",
        "label": "dataFeed",
        "offset": 0,
        "slot": "1",
        "type": "t_contract(AggregatorV3Interface)45"
      },
      {
        "astId": 782,
        "contract": "contracts/FundMe.sol:FundMe",
        "label": "owner",
        "offset": 0,
        "slot": "2",
        "type": "t_address"
      },
      {
        "astId": 784,
        "contract": "contracts/FundMe.sol:FundMe",
        "label": "deploymentTimestamp",
        "offset": 0,
        "slot": "3",
        "type": "t_uint256"
      },
      {
        "astId": 786,
        "contract": "contracts/FundMe.sol:FundMe",
        "label": "blockTime",
        "offset": 0,
        "slot": "4",
        "type": "t_uint256"
      },
      {
        "astId": 788,
        "contract": "contracts/FundMe.sol:FundMe",
        "label": "erc20Address",
        "offset": 0,
        "slot": "5",
        "type": "t_address"
      },
      {
        "astId": 791,
        "contract": "contracts/FundMe.sol:FundMe",
        "label": "getFundSuccess",
        "offset": 20,
        "slot": "5",
        "type": "t_bool"
      }
    ],
    "types": {
      "t_address": {
        "encoding": "inplace",
        "label": "address",
        "numberOfBytes": "20"
      },
      "t_bool": {
        "encoding": "inplace",
        "label": "bool",
        "numberOfBytes": "1"
      },
      "t_contract(AggregatorV3Interface)45": {
        "encoding": "inplace",
        "label": "contract AggregatorV3Interface",
        "numberOfBytes": "20"
      },
      "t_mapping(t_address,t_uint256)": {
        "encoding": "mapping",
        "key": "t_address",
        "label": "mapping(address => uint256)",
        "numberOfBytes": "32",
        "value": "t_uint256"
      },
      "t_uint256": {
        "encoding": "inplace",
        "label": "uint256",
        "numberOfBytes": "32"
      }
    }
  }
}